:020000040800F2
:100000002061002039020008B715000843150008D8
:10001000B5150008C9080008391A000800000000DA
:100020000000000000000000000000002F16000883
:10003000CB08000800000000B915000809180008E6
:10004000530200085302000853020008530200083C
:10005000530200085302000853020008530200082C
:10006000530200085302000853020008530200081C
:10007000530200085302000853020008530200080C
:1000800053020008530200085302000853020008FC
:1000900053020008530200085302000853020008EC
:1000A00053020008530200085302000853020008DC
:1000B00053020008530200085302000853020008CC
:1000C00053020008530200085302000853020008BC
:1000D00053020008530200085302000853020008AC
:1000E000530200085302000853020008530200089C
:1000F000530200085302000853020008530200088C
:10010000530200085302000853020008530200087B
:10011000530200085302000853020008530200086B
:10012000530200085302000853020008530200085B
:10013000530200085302000853020008530200084B
:10014000530200085302000853020008530200083B
:10015000530200085302000853020008530200082B
:10016000530200085302000853020008530200081B
:100170005302000853020008530200080000000068
:10018000530200085302000800F002F800F045F89E
:100190000AA090E8000C82448344AAF10107DA45E2
:1001A00001D100F03AF8AFF2090EBAE80F0013F0EF
:1001B000010F18BFFB1A43F0010318478419000010
:1001C000A4190000103A24BF78C878C1FAD85207A1
:1001D00024BF30C830C144BF04680C6070470000C1
:1001E0000023002400250026103A28BF78C1FBD840
:1001F000520728BF30C148BF0B607047642900F028
:100200005181002070471FB501F080FC9DE803007C
:1002100000F0ECF91FBD10B510BD00F0BBFA11469F
:10022000FFF7F1FF01F01AFC00F0D9FA03B4FFF771
:10023000F2FF03BC00F00AFB094880470948004769
:10024000FEE7FEE7FEE7FEE7FEE7FEE7FEE7FEE786
:10025000FEE7FEE704480549054A064B70470000E3
:100260008D1800088901000820010020206100206D
:10027000202100202021002070B5064600F09AF9C8
:10028000056806F10B0020F00704B4429CBF002073
:1002900070BD2B466A68BAB11068A04210D304F151
:1002A000080188423CBF5068586007D35168101954
:1002B00041601168091B016058601460101D70BD19
:1002C00013465268002AE7D12146284600F07AF901
:1002D0000028DED170BD70B50446051F00F06AF934
:1002E0000068002C14BF446870BD002C18BFAC42DD
:1002F0003CBF20466468F8D301680A18AA4218BFB8
:10030000456003D12A6805461144016028684119F7
:10031000A1421CBF6C6070BD6168696021680844BF
:10032000286070BD53EA020C00F069802DE9F04BA3
:100330004FF00006002B1FBFB3FA83F503FA05F454
:1003400024FA05F65E4012BF1643B2FA82F502FAAD
:1003500005F4C5F120051EBF22FA05FC44EA0C0491
:10036000203556EA044C4FEA144418BF641C4FF081
:1003700000084FF00009904271EB030C39D30029BB
:1003800019BFB1FA81F701FA07F6B0FA80F700FA5F
:1003900007F6C7F120071EBF20FA07FC46EA0C0645
:1003A0002037B6FBF4FCA7EB0507103F07F01F0B47
:1003B000CBF120060CFA0BFB2CFA06F644BFB34631
:1003C0000026202FA4BF5E464FF0000B5BEA060C10
:1003D00008BF4FF0010B19EB0B09ABFB027C48EB9C
:1003E0000608C01B06FB02CC0BFB03CC71EB0C0117
:1003F000C1E70B46024641464846BDE8F08B13B5BF
:100400004FF000004FF00001AFF30080BDE81C404A
:10041000704700000FB41CB5074B06AA7B44694621
:100420000090059800F077F90020694600F086F901
:100430001CBC5DF814FB00001D0300002DE9F04119
:100440000E460446002020622046E168884730B30B
:10045000252805D0D4E901219047206A401CF2E705
:10046000E168204600278847050018D0A5F1410023
:10047000192802D820354FF4006732462946204615
:100480002760FFF7BBFE40B1012804D0F61D26F01F
:1004900007060836D8E7361DD6E72846DAE7206A89
:1004A000BDE8F0812DE9F041064600241068752969
:1004B000314616A510D0AFF30080002802DA404282
:1004C00013A507E031688A0701D512A502E04907A4
:1004D00004D511A5012401E0AFF3008000210A2218
:1004E00006F1240709E0B0FBF2FCB0FBF2F302FBDB
:1004F0001C00303078541846491C0028F3D123469C
:100500002A463046BDE8F04100F0A6B800000000E1
:100510002D0000002B000000200000004FF0000222
:100520000429C0F0128010F0030C00F01B80CCF105
:10053000040CBCF1020F18BF00F8012BA8BF20F873
:10054000022BA1EB0C0100F00DB85FEAC17C24BFC7
:1005500000F8012B00F8012B48BF00F8012B704771
:100560004FF0000200B5134694469646203922BF4C
:10057000A0E80C50A0E80C50B1F12001BFF4F7AF97
:10058000090728BFA0E80C5048BF0CC05DF804EB79
:10059000890028BF40F8042B08BF704748BF20F8E7
:1005A000022B11F0804F18BF00F8012B70477047E5
:1005B0007047704700487047C80000207047704778
:1005C0007047704738B504460A4600206946AFF3C5
:1005D0000080002808BF38BD02460099204600F080
:1005E000B7F8012038BD012000F0CCB8F8B5AFF362
:1005F0000080054600200C46102000BF0646A819C2
:10060000A0420DD9324669460020AFF300800700B2
:1006100008BF00F0B7F80098A04218BF0546C419FB
:10062000FFF7C8FF05600746F01D20F007004619D8
:10063000284600F00AF8B44208BFF8BDA21B3146B4
:100640003868BDE8F84000F083B800210160C0E9D7
:1006500001107047102070472DE9F0470D4699466C
:100660009246044600F124080168880604D5E06932
:1006700021F01001216000E00120A84201DD471BAC
:1006800000E00027A1697A1902EB0900081AA061AD
:100690002078C00602D42046AFF30080002608E090
:1006A000D4E901211AF806009047206A401C761C04
:1006B00020624E45F4DB2078C0060AD52046AFF311
:1006C000008006E0D4E9012130209047206A401CD8
:1006D0002062381EA7F10107F4DC07E0D4E901210C
:1006E00018F805009047206A401C2062281EA5F1DA
:1006F0000105F3DC2046AFF300802078000602D528
:100700000220BDE8F0870120FBE7000001694A1CD8
:1007100002610878704700B58FB0CDE90131002142
:10072000059105497944CDE9031011466846FFF764
:1007300085FE0FB000BD0000E5FFFFFF0A6802F86C
:10074000010B0A607047000000487047C00000209D
:10075000034640688C46002818BF88423CBF0346C9
:100760004068F8D318681844884207D00CF1030099
:1007700020F00700001D411A521A0146081D0A60A8
:10078000FFF7A9BD10B500F039F8BDE8104000F042
:100790002FB870477546FFF7D7FFAE46050069468C
:1007A000534620F00700854618B020B5FFF752FDEC
:1007B000BDE820404FF000064FF000074FF0000862
:1007C0004FF0000B21F00701AC46ACE8C009ACE8E3
:1007D000C009ACE8C009ACE8C0098D46704710B547
:1007E0000446AFF300802046BDE81040FFF71EBD71
:1007F000002801D000F02AB87047000010B5012889
:1008000005D0002103A000F027F8012010BD09A1A8
:10081000F8E7000053494752544D454D3A204F7573
:1008200074206F662068656170206D656D6F7279E8
:10083000000000003A2048656170206D656D6F72A0
:100840007920636F727275707465640001491820B5
:10085000ABBEFEE72600020070B505460C460A2036
:1008600000E06D1C00F011F835B128780028F8D1AF
:1008700002E0641C00F009F814B120780028F8D1D7
:10088000BDE870400A20AFF3008008B569468DF8D6
:1008900000000320ABBE08BD0A4909480D1DA1F1A7
:1008A00018040860207855F820100548001F884774
:1008B0006069401C6061642000F00AF8F2E7000003
:1008C000341B000828000020FEE7704772B6FEE7E0
:1008D00070B5044600F014F90546601C02D00448C7
:1008E0000078044400F00CF9401BA042FAD370BD1C
:1008F000000000202DE9F84FDFF8BCA100220125FF
:1009000003264FF00F090AF1040BAAF1040E00BFF1
:100910000B6805FA02F42340A34270D10F7907F067
:100920000307012F01D0022F16D187684FEA420832
:1009300006FA08FC27EA0C07D1F80CC00CFA08FCF0
:100940004CEA070CC0F808C04768A7430C79C4F309
:10095000001494403C4344600C79E443A4070AD05B
:10096000C4684FEA420C06FA0CF7BC438F6807FADA
:100970000CF72743C7600C7904F00304022C12D152
:10098000D40800EB840CDCF820405707FF0E09FA6E
:1009900007F824EA0804D1F8108008FA07F848EAB2
:1009A0000408CCF8208004684FEA420C06FA0CF7E1
:1009B000BC430F7907F0030707FA0CF727430760DA
:1009C0004C6814F4403F70D03C4C276847F4804793
:1009D0002760246822F0030704F480440094384C14
:1009E00007EB040CDCF8084897074FEA177809FA78
:1009F00008F7BC43334FB84202D1002724E054E04B
:100A0000314FB84201D101271EE0304FB84201D129
:100A1000022719E02E4FB84201D1032714E02D4FD1
:100A2000B84201D104270FE02B4FB84201D105276E
:100A30000AE02A4FB84201D1062705E0284FB84204
:100A400001D1072700E0082707FA08F72743CCF869
:100A50000878DAF800405746D1F804C09C435FEAB2
:100A6000CC2C00D51C433C60DBF800405F46D1F83D
:100A700004C09C435FEA8C2C00D51C433C60DEF82C
:100A800000407746D1F804C09C435FEA8C3C00D517
:100A90001C433C60084F083F3C68D1F804C09C43AD
:100AA0005FEACC3C00D51C433C60521C102AFFF48A
:100AB0002FAFBDE8F88F0000083C014044380240E9
:100AC00000300140000002400004024000080240E3
:100AD000000C0240001002400014024000180240C6
:100AE000001C0240426921EA02030A4043EA024133
:100AF000816170470AB1816170470904FBE700001A
:100B000001488068704700000000002002488168AA
:100B10000278114481607047000000200B4810B536
:100B2000016841F400710160016841F48061016075
:100B3000016841F480710160032000F061F80F202A
:100B400000F006F800F024F8002010BD003C024040
:100B500070B50D4D04464FF47A712878B1FBF0F072
:100B60000A490968B1FBF0F000F019FC48B9102CF3
:100B700007D200222146501E00F022F800206C60AF
:100B800070BD012070BD0000000000200C0000209E
:100B90000A4808B5016841F480410160006800F42A
:100BA000804000900548001F016841F080510160BD
:100BB000006800F08050009008BD000044380240FA
:100BC000F0B40E4B1B680C46C3F30223C3F10705B8
:100BD000042D00D90425191D072901D2002300E0A6
:100BE000DB1E012606FA05F1491E214099409E4070
:100BF000761E16403143F0BC00F01FBF0CED00E044
:100C0000064900F0070208684FF6FF03184040EA63
:100C10000220034A10430860704700000CED00E01A
:100C20000000FA052DE9F843054600684FF0010978
:100C3000C1074FF0000601D1400727D5DFF80C812E
:100C4000C8F86860FFF75CFF0746414C05E000BF4D
:100C5000FFF756FFC01B022857D820680001F7D4C1
:100C600068688101287A41EA007039498431086056
:100C7000C8F86890FFF744FF074604E0FFF740FF1D
:100C8000C01B022841D820680001F7D528788007CA
:100C900052D52F484030016841F080510160006812
:100CA0002C4C00F080500090206840F48070206050
:100CB000FFF726FF074604E0FFF722FFC01B0228CC
:100CC00023D82068C005F7D5214C7034206810F473
:100CD000407020D0A98901F4407181421BD0206866
:100CE0001D4920F44070C1F800900E60206020681B
:100CF000C00710D0FFF704FF064641F2883707E02F
:100D0000FFF7FEFE801BB84202D90320BDE8F8833E
:100D100020688007F4D5E9680D48C1F30122083046
:100D2000032A0BD0016821F4F81101602068A98919
:100D3000C1F30B01084320600020E7E70268074B7E
:100D400022F4F81219400A430260EFE7000047421C
:100D50000038024000700040400E4742FFFCFF0F89
:100D60002DE9F0470E46050065D0DFF81481D8F86C
:100D70000000F7B200F00700B04207D288F8007018
:100D8000D8F8000000F00700B04254D128683D4C6C
:100D9000810712D5400703D5206840F4E050206059
:100DA0002878000703D5206840F460402060206860
:100DB000A96820F0F000084320602878C0072DD0F3
:100DC000304968680839012812D0022813D0032856
:100DD00011D00968890700292DDA216821F0030163
:100DE00001432160FFF78CFE814641F2883A0EE014
:100DF00009688903EFE709688901ECE7FFF780FEDE
:100E0000A0EB0901514502D90320BDE8F087206815
:100E1000696800F00C00B0EB810FEFD1D8F800103A
:100E2000404601F00701B14207D90770006800F0A1
:100E30000700B04201D00120E7E72878400705D538
:100E40002068E96820F4E050084320602878000713
:100E500006D52068296920F4604040EAC10020607E
:100E600000F038F82168084AC1F30311515CC8400A
:100E70000649086006480068FFF76AFE0020C4E7DC
:100E8000003C024008380240161B00080C000020FD
:100E9000040000200448054900680968044AC1F3B9
:100EA0008221515CC84070470C0000200838024085
:100EB000261B00080448054900680968044AC1F374
:100EC0004231515CC84070470C0000200838024095
:100ED000261B0008154810B5006810F00C021448D5
:100EE00013D01449042A0FD0082A0ED10F4C241F06
:100EF0002268236802F03F025B0207D52068C0F336
:100F00008810A0FB010106E0084610BD2168C1F36E
:100F10008811A1FB00010023FFF704FA2168C1F347
:100F20000141491C4900B0FBF1F010BD08380240F6
:100F30000024F40040787D012DE9F84F04006ED0C4
:100F40002078DFF84C93C007A9F104054AD009F1D5
:100F500004000168C1F38101012908D00068C0F3D1
:100F6000810002280AD1D9F80000400206D528687D
:100F7000800337D560680028E1D033E06068B0F5C1
:100F8000803F10D0B0F5A02F286810D020F480301A
:100F90002860286820F4802028606068A8B1FFF7E6
:100FA000AFFD06460DE0286840F48030F4E740F4D9
:100FB00080202860F7E700BFFFF7A2FD801B6428B0
:100FC00073D828688003F7D50CE0FFF799FD064633
:100FD00005E000BFFFF794FD801B6428F0D8286867
:100FE0008003F7D42078DFF8AC8280074FF0000A46
:100FF0003ED5A748001D016811F00C0F08D000680D
:10100000C0F3810002280BD1D9F80000400207D4B8
:101010002868800716D5E068012800D112E033E186
:10102000E068B8B10120C8F80000FFF769FD064686
:1010300005E000BFFFF764FD801B0228C0D82868C8
:101040008007F7D52868216920F0F80040EAC10040
:1010500028600DE0C8F800A0FFF752FD064604E046
:10106000FFF74EFD801B02281FD828688007F7D4A1
:101070002078000722D5864F87486169703771B1A3
:1010800001210160FFF73CFD064604E0FFF738FD53
:10109000801B022809D838688007F7D50EE0C0F811
:1010A00000A0FFF72DFD064605E082E0FFF728FDD2
:1010B000801B02287DD838688007F7D42078400745
:1010C00068D5DFF8CCB100270BF13C0BDBF8000052
:1010D000C0000BD4DBF8001041F08051CBF80010B9
:1010E000DBF80000012700F0805000906B4E306864
:1010F000C00510D4306840F480703060FFF700FD08
:10110000009005E0FFF7FCFC0099401A022850D837
:101110003068C005F6D55E4EA0686C3601280FD049
:101120000528306810D020F001003060306820F0D1
:1011300004003060A068B8B1FFF7E2FC00900FE057
:10114000306840F00100F4E740F004003060F7E759
:10115000FFF7D6FC0099411A41F28830814266D8E7
:1011600030688007F4D50EE0FFF7CAFC009007E076
:10117000FFF7C6FC0099411A41F28830814256D8E7
:1011800030688007F4D42FB1DBF8001021F08051D3
:10119000CBF80010A069C8B33D49091D0968C1F327
:1011A000810102294AD00228504607D0C8F86000C1
:1011B00000E03CE0FFF7A4FC04463BE04746C8F8EB
:1011C0006000FFF79DFC064605E000BFFFF798FCB6
:1011D000801B02282BD828688001F7D4D4E90701A6
:1011E0000843A16A2E4A490802EB0141626A41EABA
:1011F0008211084394F82C1040EA0161C9F80010EC
:1012000001203866FFF77CFC044606E03EE000BFA4
:10121000FFF776FC001B022809D828688001F7D563
:1012200034E000BFFFF76CFC001B022802D903204A
:10123000BDE8F88F28688001F4D427E00128F7D0B2
:10124000D9F80000E26900F4800191421CD1226AC1
:1012500000F03F01914217D147F6C071626A014028
:10126000B1EB821F10D1A26A4FF0FF3300F440317E
:1012700003EB5202B1EB024F06D194F82C1000F0B0
:101280007060B0EB016F01D00120D1E70020CFE703
:101290000438024000004742800E47420070004080
:1012A0000000FFFF10B5040002D0607F10B106E01F
:1012B000012010BD00202077204600F039F80220E0
:1012C00060772168CA20486221685320486220461E
:1012D00000F074F930BB20688168144A11408160C5
:1012E0002168886862681043D4E904231A431043D4
:1012F00088602168E068086120680169228941EA04
:1013000002410161204600F07DF958B921680A6C5C
:1013100022F480220A6421680A6CA3691A430A64D1
:10132000012161772268FF21516210BDBFFF8FFF4D
:101330001FB50021009101910291039100680849B5
:1013400088420CD102200090000203906846FFF70B
:1013500069FC08B1FFF7BAFA0249012008601FBD15
:10136000002800403C0E474270B504460068C16842
:1013700021F0A001C160FFF7C3FB05464FF47A7668
:1013800007E000BFFFF7BCFB401BB04201D90320C0
:1013900070BD2068C0688006F4D5002070BD10B50F
:1013A000401EB0F1807F01D3012010BD4FF0E0243A
:1013B00060610F21601700F040FB0020A061072052
:1013C0002061002010BD70B5040004D094F83D00E9
:1013D000002510B106E0012070BD84F83C50204685
:1013E00000F022F8242084F83D002068C16821F430
:1013F0000051C160204600F05DFA2068016921F4C7
:10140000904101612068416921F02A014161206811
:10141000C16841F40051C1602564202084F83D007A
:1014200084F83E00002070BD10B586B0044614213B
:101430006846FFF795F81349206888421FD1124883
:101440000021026842F400220260006800F40020DB
:1014500005900D481038026842F0010202600068F1
:10146000022200F0010005900320CDE90210CDE931
:1014700000020820049069460448FFF73BFA06B0D2
:1014800010BD0000004C0040403802400000024007
:101490002DE9F843044690F83D001F4616460D46D8
:1014A00020284CD1C5B1BEB194F83C00012846D0EB
:1014B000012084F83C004FF00008C4F8408021204F
:1014C00084F83D00FFF71CFBA6848146E684A068F3
:1014D000B0F5805F03D004E00120BDE8F883206907
:1014E00028B12E465FF0000584F83C800EE000260F
:1014F000FAE78021204600F063FAA0B9AEB116F8F1
:10150000010B21684860E08C401EE084E08C4B4673
:101510004FF0000200970028EBD14FF04001204629
:1015200000F04EFA30B10320D7E735F8020BC0F3D4
:101530000800E6E7202084F83D000020CDE70220E7
:10154000CBE7FEE770B586B014216846FFF708F8D0
:1015500016480024016841F080010160016801F033
:1015600080010591016841F001010160016801F00D
:1015700001010591016841F00801016000680C4E0D
:1015800000F008004FF460450590002229463046DF
:10159000FFF7B0FA01200095CDE901046946304615
:1015A0000394FFF7A7F906B070BD00003038024081
:1015B000000C0240FEE7FEE7704700002DE9F04115
:1015C000044600680025C168490618D4C16841F086
:1015D0008001C160FFF794FA06464FF47A78042739
:1015E00007E000BFFFF78CFA801B404501D9677701
:1015F00001252068C068400601D4002DF2D028469D
:10160000BDE8F08170B5044600680025C16821F08E
:101610008001C16020688068800606D42046FFF7FC
:10162000A3FE10B1042060770125284670BD7047E5
:1016300070B51B4D6869022801D101202870FFF7A1
:101640005FFA184C60602168401A00EE100AB8EE8C
:10165000400A84ED020A6868401C68603220FEF788
:101660000BFE2861636810A16A68FEF7D3FE64234D
:10167000322213482969FFF70BFF2869FEF72BFE7A
:101680004FF400510F48FFF72DFA94ED020ADFEDF9
:101690000E0A80EE201A84ED021A6068206070BD88
:1016A000100000209C0000202061203D20256420A7
:1016B0003A207469636B203D202564200A000000F5
:1016C00058000020000C02400000C84270B51B4DBD
:1016D0006869052801D102202870FFF711FA184C1B
:1016E00060602168401A00EE100AB8EE400A84EDEE
:1016F000020AA868401CA8603220FEF7BDFD2861E0
:10170000636810A1AA68FEF785FE6423322213489D
:101710002969FFF7BDFE2869FEF7DDFD4FF4804122
:101720000F48FFF7DFF994ED020ADFED0E0A80EEB5
:10173000201A84ED021A6068206070BD100000203D
:10174000A80000202062203D202564203A207469F2
:10175000636B203D202564200A0D00005800002006
:10176000000C02400000C84270B51C4D6869092891
:1017700002D1002068612870FFF7C2F9184C606040
:101780002168401A00EE100AB8EE400A84ED020A01
:10179000E868401CE8603220FEF76EFD286163684F
:1017A00010A1EA68FEF736FE642332221348296945
:1017B000FFF76EFE2869FEF78EFD4FF400411048DA
:1017C000FFF790F994ED020ADFED0E0A80EE201A81
:1017D00084ED021A6068206070BD000010000020D7
:1017E000B40000202063203D202564203A20746945
:1017F000636B203D202564200A0D00005800002066
:10180000000C02400000C842FFF780B910B592B04A
:1018100030216846FEF7A4FE14210CA8FEF7A0FEB6
:1018200018480024016841F080510160006800F010
:10183000805011901448016841F4804101600068B3
:10184000102100F4804011900A2000900120CDE981
:101850000301CDE905046846FFF76EFB08B172B6D7
:10186000FEE70F20CDE90C040E940F9400210CA884
:101870001094FFF775FA002801D072B6FEE712B097
:1018800010BD00004038024000700040024801686E
:1018900041F470010160704788ED00E00068016864
:1018A00009680847006801684968084700680168D6
:1018B0008968084770B5044600680169E26821F448
:1018C0004051114301612169A068E26908436169DF
:1018D000114308432168CA6849F20C639A430243E2
:1018E000CA6020684169A26921F4407111434161D5
:1018F00031492068884202D03049884202D1FFF73E
:10190000D9FA01E0FFF7C6FAE2690023192164253C
:101910003226B2F5004F626828D0A0FB0101930F78
:101920009200FEF7FFFC0146B0FBF5F06FF01802E5
:10193000504301EB800006EB0010B0FBF5F000F027
:10194000F002B1FBF5F002EB0012B1FBF5F06FF025
:101950001803584301EB800006EB0010B0FBF5F0D4
:1019600000F00F0021681044886070BDA0FB0101E9
:1019700092185B41FEF7D6FC0146B0FBF5F0020180
:10198000B1FBF5F06FF01803584301EB800006EB54
:10199000C000B0FBF5F000F0F80002EB4002B1FB34
:1019A000F5F0584301EB800006EBC000B0FBF5F00A
:1019B00000F00700D6E700000010014000140140CD
:1019C0002DE9F041984617460E460446069D27E04D
:1019D000681C25D02DB1FFF793F8A0EB0800A842B2
:1019E0001ED920680C3050E8001F21F4D07140E867
:1019F0000012002AF5D12068143050E8001F21F0B1
:101A0000010140E80012002AF5D1202084F83D00B1
:101A100084F83E00002084F83C000320BDE8F081FB
:101A20002068006836EA000004D00020B842CFD019
:101A30000020F3E70120F9E7FEE70907090E002877
:101A400004DB00F1E02080F80014704700F00F0084
:101A500000F1E02080F8141D70470000FFF75EF8E9
:101A6000FFF7D4FEFFF76EFD1A4819490024C0E9BC
:101A700000147F218160FF21C0E903144461846167
:101A8000FFF710FC08B172B6FEE712481249203089
:101A900001604FF4E131C0E901140C21C460C0E9D8
:101AA00004418461C461FFF78EFC08B172B6FEE7A1
:101AB0000AA432212046FEF731FD06486423322273
:101AC00021462030FFF7E4FCFEF7E6FEFEE70000CB
:101AD0000028004038000020004C0040506F6C7916
:101AE0004D6F72706973686D20696E2053746174F4
:101AF000652D4D616368696E65202D2040612E65FE
:101B00007274656B696E200A000000004FF040702F
:101B1000E1EE100A70470000000000000000010222
:101B20000304060708090000000001020304000086
:101B30002800002031160008CD160008691700089B
:101B4000601B00080000002038000000C4010008ED
:101B5000981B000838000020E8600000E001000841
:101B60000100000010000000000000000024F4004C
:101B70000000000000000000000000000000000065
:101B80000000000000000000000000009D18000898
:081B9000A5180008AD180008BB
:040000050800018965
:00000001FF
